{
  "contractName": "FirstContract",
  "abi": [
    {
      "inputs": [
        {
          "internalType": "string",
          "name": "_securityCode",
          "type": "string"
        }
      ],
      "name": "getAdminData",
      "outputs": [
        {
          "internalType": "uint256",
          "name": "",
          "type": "uint256"
        },
        {
          "internalType": "string",
          "name": "",
          "type": "string"
        }
      ],
      "stateMutability": "view",
      "type": "function",
      "constant": true
    }
  ],
  "bytecode": "0x608060405260c86000556040518060400160405280600581526020017f6c616c6974000000000000000000000000000000000000000000000000000000815250600190816200004f9190620002de565b503480156200005d57600080fd5b50620003c5565b600081519050919050565b7f4e487b7100000000000000000000000000000000000000000000000000000000600052604160045260246000fd5b7f4e487b7100000000000000000000000000000000000000000000000000000000600052602260045260246000fd5b60006002820490506001821680620000e657607f821691505b602082108103620000fc57620000fb6200009e565b5b50919050565b60008190508160005260206000209050919050565b60006020601f8301049050919050565b600082821b905092915050565b600060088302620001667fffffffffffffffffffffffffffffffffffffffffffffffffffffffffffffffff8262000127565b62000172868362000127565b95508019841693508086168417925050509392505050565b6000819050919050565b6000819050919050565b6000620001bf620001b9620001b3846200018a565b62000194565b6200018a565b9050919050565b6000819050919050565b620001db836200019e565b620001f3620001ea82620001c6565b84845462000134565b825550505050565b600090565b6200020a620001fb565b62000217818484620001d0565b505050565b5b818110156200023f576200023360008262000200565b6001810190506200021d565b5050565b601f8211156200028e57620002588162000102565b620002638462000117565b8101602085101562000273578190505b6200028b620002828562000117565b8301826200021c565b50505b505050565b600082821c905092915050565b6000620002b36000198460080262000293565b1980831691505092915050565b6000620002ce8383620002a0565b9150826002028217905092915050565b620002e98262000064565b67ffffffffffffffff8111156200030557620003046200006f565b5b620003118254620000cd565b6200031e82828562000243565b600060209050601f83116001811462000356576000841562000341578287015190505b6200034d8582620002c0565b865550620003bd565b601f198416620003668662000102565b60005b82811015620003905784890151825560018201915060208501945060208101905062000369565b86831015620003b05784890151620003ac601f891682620002a0565b8355505b6001600288020188555050505b505050505050565b61048080620003d56000396000f3fe608060405234801561001057600080fd5b506004361061002b5760003560e01c806320f2723c14610030575b600080fd5b61004a600480360381019061004591906102d9565b610061565b6040516100589291906103ba565b60405180910390f35b6000606082516040518060400160405280600881526020017f6a636a6364633532000000000000000000000000000000000000000000000000815250510361013d5760005460018080546100b490610419565b80601f01602080910402602001604051908101604052809291908181526020018280546100e090610419565b801561012d5780601f106101025761010080835404028352916020019161012d565b820191906000526020600020905b81548152906001019060200180831161011057829003601f168201915b505050505090509150915061017a565b60006040518060400160405280601381526020017f77726f6e6720736563757269747920636f646500000000000000000000000000815250915091505b915091565b6000604051905090565b600080fd5b600080fd5b600080fd5b600080fd5b6000601f19601f8301169050919050565b7f4e487b7100000000000000000000000000000000000000000000000000000000600052604160045260246000fd5b6101e68261019d565b810181811067ffffffffffffffff82111715610205576102046101ae565b5b80604052505050565b600061021861017f565b905061022482826101dd565b919050565b600067ffffffffffffffff821115610244576102436101ae565b5b61024d8261019d565b9050602081019050919050565b82818337600083830152505050565b600061027c61027784610229565b61020e565b90508281526020810184848401111561029857610297610198565b5b6102a384828561025a565b509392505050565b600082601f8301126102c0576102bf610193565b5b81356102d0848260208601610269565b91505092915050565b6000602082840312156102ef576102ee610189565b5b600082013567ffffffffffffffff81111561030d5761030c61018e565b5b610319848285016102ab565b91505092915050565b6000819050919050565b61033581610322565b82525050565b600081519050919050565b600082825260208201905092915050565b60005b8381101561037557808201518184015260208101905061035a565b60008484015250505050565b600061038c8261033b565b6103968185610346565b93506103a6818560208601610357565b6103af8161019d565b840191505092915050565b60006040820190506103cf600083018561032c565b81810360208301526103e18184610381565b90509392505050565b7f4e487b7100000000000000000000000000000000000000000000000000000000600052602260045260246000fd5b6000600282049050600182168061043157607f821691505b602082108103610444576104436103ea565b5b5091905056fea26469706673582212209dffdbf209d333a6b01bc2d0cfc6eea4a416e61ed51038d363e0ee9640bc0c3a64736f6c63430008110033",
  "immutableReferences": {},
  "source": "//SPDX-License-Identifier:GPL-3.0\r\npragma solidity ^0.8.0;\r\n\r\ncontract FirstContract {\r\n  uint256 myNum = 200;\r\n  string myName = \"lalit\";\r\n\r\n  function getAdminData(string memory _securityCode) public view returns(uint256, string memory) {\r\n    if(bytes(\"jcjcdc52\").length == bytes(_securityCode).length) {\r\n         return (myNum, myName);\r\n    }\r\n\r\n    return (0, \"wrong security code\");\r\n  }\r\n\r\n}\r\n",
  "sourcePath": "C:\\Users\\React\\truffle-project\\contracts\\FirstContract.sol",
  "compiler": {
    "name": "solc",
    "version": "0.8.17+commit.8df45f5f.Emscripten.clang"
  },
  "schemaVersion": "3.4.11",
  "updatedAt": "2022-12-29T14:08:59.337Z",
  "networkType": "ethereum",
  "devdoc": {
    "kind": "dev",
    "methods": {},
    "version": 1
  },
  "userdoc": {
    "kind": "user",
    "methods": {},
    "version": 1
  }
}